{
  "_format": "hh-sol-artifact-1",
  "contractName": "LandRegistry",
  "sourceName": "contracts/LandRegistry.sol",
  "abi": [
    {
      "inputs": [],
      "stateMutability": "nonpayable",
      "type": "constructor"
    },
    {
      "inputs": [
        {
          "internalType": "address",
          "name": "",
          "type": "address"
        }
      ],
      "name": "BuyerMapping",
      "outputs": [
        {
          "internalType": "address",
          "name": "buyerId",
          "type": "address"
        },
        {
          "internalType": "string",
          "name": "buyerName",
          "type": "string"
        },
        {
          "internalType": "uint256",
          "name": "age",
          "type": "uint256"
        },
        {
          "internalType": "string",
          "name": "city",
          "type": "string"
        },
        {
          "internalType": "string",
          "name": "aadharNumber",
          "type": "string"
        },
        {
          "internalType": "string",
          "name": "panNumber",
          "type": "string"
        }
      ],
      "stateMutability": "view",
      "type": "function"
    },
    {
      "inputs": [
        {
          "internalType": "address",
          "name": "",
          "type": "address"
        }
      ],
      "name": "BuyerRejection",
      "outputs": [
        {
          "internalType": "bool",
          "name": "",
          "type": "bool"
        }
      ],
      "stateMutability": "view",
      "type": "function"
    },
    {
      "inputs": [
        {
          "internalType": "address",
          "name": "",
          "type": "address"
        }
      ],
      "name": "BuyerVerification",
      "outputs": [
        {
          "internalType": "bool",
          "name": "",
          "type": "bool"
        }
      ],
      "stateMutability": "view",
      "type": "function"
    },
    {
      "inputs": [],
      "name": "GovtOfficialAddress",
      "outputs": [
        {
          "internalType": "address",
          "name": "",
          "type": "address"
        }
      ],
      "stateMutability": "view",
      "type": "function"
    },
    {
      "inputs": [
        {
          "internalType": "uint256",
          "name": "",
          "type": "uint256"
        }
      ],
      "name": "LandOwner",
      "outputs": [
        {
          "internalType": "address",
          "name": "",
          "type": "address"
        }
      ],
      "stateMutability": "view",
      "type": "function"
    },
    {
      "inputs": [
        {
          "internalType": "uint256",
          "name": "",
          "type": "uint256"
        }
      ],
      "name": "LandVerification",
      "outputs": [
        {
          "internalType": "bool",
          "name": "",
          "type": "bool"
        }
      ],
      "stateMutability": "view",
      "type": "function"
    },
    {
      "inputs": [
        {
          "internalType": "uint256",
          "name": "",
          "type": "uint256"
        }
      ],
      "name": "PaymentReceived",
      "outputs": [
        {
          "internalType": "bool",
          "name": "",
          "type": "bool"
        }
      ],
      "stateMutability": "view",
      "type": "function"
    },
    {
      "inputs": [
        {
          "internalType": "address",
          "name": "",
          "type": "address"
        }
      ],
      "name": "RegisteredAddressMapping",
      "outputs": [
        {
          "internalType": "bool",
          "name": "",
          "type": "bool"
        }
      ],
      "stateMutability": "view",
      "type": "function"
    },
    {
      "inputs": [
        {
          "internalType": "address",
          "name": "",
          "type": "address"
        }
      ],
      "name": "RegisteredBuyerMapping",
      "outputs": [
        {
          "internalType": "bool",
          "name": "",
          "type": "bool"
        }
      ],
      "stateMutability": "view",
      "type": "function"
    },
    {
      "inputs": [
        {
          "internalType": "address",
          "name": "",
          "type": "address"
        }
      ],
      "name": "RegisteredSellerMapping",
      "outputs": [
        {
          "internalType": "bool",
          "name": "",
          "type": "bool"
        }
      ],
      "stateMutability": "view",
      "type": "function"
    },
    {
      "inputs": [
        {
          "internalType": "uint256",
          "name": "",
          "type": "uint256"
        }
      ],
      "name": "RequestStatus",
      "outputs": [
        {
          "internalType": "bool",
          "name": "",
          "type": "bool"
        }
      ],
      "stateMutability": "view",
      "type": "function"
    },
    {
      "inputs": [
        {
          "internalType": "uint256",
          "name": "",
          "type": "uint256"
        }
      ],
      "name": "RequestedLands",
      "outputs": [
        {
          "internalType": "bool",
          "name": "",
          "type": "bool"
        }
      ],
      "stateMutability": "view",
      "type": "function"
    },
    {
      "inputs": [
        {
          "internalType": "uint256",
          "name": "",
          "type": "uint256"
        }
      ],
      "name": "RequestsMapping",
      "outputs": [
        {
          "internalType": "uint256",
          "name": "requesId",
          "type": "uint256"
        },
        {
          "internalType": "address",
          "name": "sellerId",
          "type": "address"
        },
        {
          "internalType": "address",
          "name": "buyerId",
          "type": "address"
        },
        {
          "internalType": "uint256",
          "name": "landId",
          "type": "uint256"
        }
      ],
      "stateMutability": "view",
      "type": "function"
    },
    {
      "inputs": [
        {
          "internalType": "address",
          "name": "",
          "type": "address"
        }
      ],
      "name": "SellerMapping",
      "outputs": [
        {
          "internalType": "address",
          "name": "sellerId",
          "type": "address"
        },
        {
          "internalType": "string",
          "name": "sellerName",
          "type": "string"
        },
        {
          "internalType": "uint256",
          "name": "age",
          "type": "uint256"
        },
        {
          "internalType": "string",
          "name": "city",
          "type": "string"
        },
        {
          "internalType": "string",
          "name": "aadharNumber",
          "type": "string"
        },
        {
          "internalType": "string",
          "name": "panNumber",
          "type": "string"
        }
      ],
      "stateMutability": "view",
      "type": "function"
    },
    {
      "inputs": [
        {
          "internalType": "address",
          "name": "",
          "type": "address"
        }
      ],
      "name": "SellerRejection",
      "outputs": [
        {
          "internalType": "bool",
          "name": "",
          "type": "bool"
        }
      ],
      "stateMutability": "view",
      "type": "function"
    },
    {
      "inputs": [
        {
          "internalType": "address",
          "name": "",
          "type": "address"
        }
      ],
      "name": "SellerVerification",
      "outputs": [
        {
          "internalType": "bool",
          "name": "",
          "type": "bool"
        }
      ],
      "stateMutability": "view",
      "type": "function"
    },
    {
      "inputs": [
        {
          "internalType": "uint256",
          "name": "_reqId",
          "type": "uint256"
        }
      ],
      "name": "approveRequest",
      "outputs": [],
      "stateMutability": "nonpayable",
      "type": "function"
    },
    {
      "inputs": [
        {
          "internalType": "uint256",
          "name": "",
          "type": "uint256"
        }
      ],
      "name": "buyers",
      "outputs": [
        {
          "internalType": "address",
          "name": "",
          "type": "address"
        }
      ],
      "stateMutability": "view",
      "type": "function"
    },
    {
      "inputs": [],
      "name": "buyersCount",
      "outputs": [
        {
          "internalType": "uint256",
          "name": "",
          "type": "uint256"
        }
      ],
      "stateMutability": "view",
      "type": "function"
    },
    {
      "inputs": [
        {
          "internalType": "address payable",
          "name": "_seller",
          "type": "address"
        },
        {
          "internalType": "uint256",
          "name": "_landId",
          "type": "uint256"
        }
      ],
      "name": "landPayment",
      "outputs": [],
      "stateMutability": "payable",
      "type": "function"
    },
    {
      "inputs": [
        {
          "internalType": "uint256",
          "name": "",
          "type": "uint256"
        }
      ],
      "name": "lands",
      "outputs": [
        {
          "internalType": "uint256",
          "name": "landId",
          "type": "uint256"
        },
        {
          "internalType": "uint256",
          "name": "propertyPID",
          "type": "uint256"
        },
        {
          "internalType": "uint256",
          "name": "pincode",
          "type": "uint256"
        },
        {
          "internalType": "uint256",
          "name": "landPrice",
          "type": "uint256"
        },
        {
          "internalType": "string",
          "name": "city",
          "type": "string"
        },
        {
          "internalType": "string",
          "name": "state",
          "type": "string"
        },
        {
          "internalType": "uint256",
          "name": "physicalSurveyNumber",
          "type": "uint256"
        },
        {
          "internalType": "string",
          "name": "ipfsHash",
          "type": "string"
        },
        {
          "internalType": "string",
          "name": "document",
          "type": "string"
        }
      ],
      "stateMutability": "view",
      "type": "function"
    },
    {
      "inputs": [],
      "name": "landsCount",
      "outputs": [
        {
          "internalType": "uint256",
          "name": "",
          "type": "uint256"
        }
      ],
      "stateMutability": "view",
      "type": "function"
    },
    {
      "inputs": [
        {
          "internalType": "uint256",
          "name": "_landId",
          "type": "uint256"
        },
        {
          "internalType": "address",
          "name": "_newOwner",
          "type": "address"
        }
      ],
      "name": "ownershipTransfer",
      "outputs": [],
      "stateMutability": "nonpayable",
      "type": "function"
    },
    {
      "inputs": [
        {
          "internalType": "string",
          "name": "_name",
          "type": "string"
        },
        {
          "internalType": "uint256",
          "name": "_age",
          "type": "uint256"
        },
        {
          "internalType": "string",
          "name": "_city",
          "type": "string"
        },
        {
          "internalType": "string",
          "name": "_aadharNumber",
          "type": "string"
        },
        {
          "internalType": "string",
          "name": "_panNumber",
          "type": "string"
        }
      ],
      "name": "registerBuyer",
      "outputs": [],
      "stateMutability": "nonpayable",
      "type": "function"
    },
    {
      "inputs": [
        {
          "internalType": "uint256",
          "name": "_pincode",
          "type": "uint256"
        },
        {
          "internalType": "string",
          "name": "_city",
          "type": "string"
        },
        {
          "internalType": "string",
          "name": "_state",
          "type": "string"
        },
        {
          "internalType": "uint256",
          "name": "_landPrice",
          "type": "uint256"
        },
        {
          "internalType": "uint256",
          "name": "_propertyPID",
          "type": "uint256"
        },
        {
          "internalType": "uint256",
          "name": "_surveyNum",
          "type": "uint256"
        },
        {
          "internalType": "string",
          "name": "_ipfsHash",
          "type": "string"
        },
        {
          "internalType": "string",
          "name": "_document",
          "type": "string"
        }
      ],
      "name": "registerLand",
      "outputs": [],
      "stateMutability": "nonpayable",
      "type": "function"
    },
    {
      "inputs": [
        {
          "internalType": "string",
          "name": "_name",
          "type": "string"
        },
        {
          "internalType": "uint256",
          "name": "_age",
          "type": "uint256"
        },
        {
          "internalType": "string",
          "name": "_aadharNumber",
          "type": "string"
        },
        {
          "internalType": "string",
          "name": "_panNumber",
          "type": "string"
        },
        {
          "internalType": "string",
          "name": "_city",
          "type": "string"
        }
      ],
      "name": "registerSeller",
      "outputs": [],
      "stateMutability": "nonpayable",
      "type": "function"
    },
    {
      "inputs": [],
      "name": "rejectBuyer",
      "outputs": [],
      "stateMutability": "nonpayable",
      "type": "function"
    },
    {
      "inputs": [],
      "name": "rejectSeller",
      "outputs": [],
      "stateMutability": "nonpayable",
      "type": "function"
    },
    {
      "inputs": [
        {
          "internalType": "address",
          "name": "_sellerId",
          "type": "address"
        },
        {
          "internalType": "uint256",
          "name": "_landId",
          "type": "uint256"
        }
      ],
      "name": "requestLand",
      "outputs": [],
      "stateMutability": "nonpayable",
      "type": "function"
    },
    {
      "inputs": [],
      "name": "requestsCount",
      "outputs": [
        {
          "internalType": "uint256",
          "name": "",
          "type": "uint256"
        }
      ],
      "stateMutability": "view",
      "type": "function"
    },
    {
      "inputs": [
        {
          "internalType": "uint256",
          "name": "",
          "type": "uint256"
        }
      ],
      "name": "sellers",
      "outputs": [
        {
          "internalType": "address",
          "name": "",
          "type": "address"
        }
      ],
      "stateMutability": "view",
      "type": "function"
    },
    {
      "inputs": [],
      "name": "sellersCount",
      "outputs": [
        {
          "internalType": "uint256",
          "name": "",
          "type": "uint256"
        }
      ],
      "stateMutability": "view",
      "type": "function"
    },
    {
      "inputs": [
        {
          "internalType": "string",
          "name": "_name",
          "type": "string"
        },
        {
          "internalType": "uint256",
          "name": "_age",
          "type": "uint256"
        },
        {
          "internalType": "string",
          "name": "_city",
          "type": "string"
        },
        {
          "internalType": "string",
          "name": "_aadharNumber",
          "type": "string"
        },
        {
          "internalType": "string",
          "name": "_panNumber",
          "type": "string"
        }
      ],
      "name": "updateBuyer",
      "outputs": [],
      "stateMutability": "nonpayable",
      "type": "function"
    },
    {
      "inputs": [
        {
          "internalType": "string",
          "name": "_name",
          "type": "string"
        },
        {
          "internalType": "uint256",
          "name": "_age",
          "type": "uint256"
        },
        {
          "internalType": "string",
          "name": "_aadharNumber",
          "type": "string"
        },
        {
          "internalType": "string",
          "name": "_panNumber",
          "type": "string"
        }
      ],
      "name": "updateSeller",
      "outputs": [],
      "stateMutability": "nonpayable",
      "type": "function"
    },
    {
      "inputs": [],
      "name": "verifyBuyer",
      "outputs": [],
      "stateMutability": "nonpayable",
      "type": "function"
    },
    {
      "inputs": [
        {
          "internalType": "uint256",
          "name": "_landId",
          "type": "uint256"
        }
      ],
      "name": "verifyLand",
      "outputs": [],
      "stateMutability": "nonpayable",
      "type": "function"
    },
    {
      "inputs": [],
      "name": "verifySeller",
      "outputs": [],
      "stateMutability": "nonpayable",
      "type": "function"
    }
  ],
  "bytecode": "0x60806040523480156200001157600080fd5b5033601060006101000a81548173ffffffffffffffffffffffffffffffffffffffff021916908373ffffffffffffffffffffffffffffffffffffffff16021790555060405180606001604052806040518060400160405280600481526020017f41626364000000000000000000000000000000000000000000000000000000008152508152602001605081526020016040518060400160405280600981526020017f54656873696c646172000000000000000000000000000000000000000000000081525081525060116000820151816000019080519060200190620000f99291906200012c565b50602082015181600101556040820151816002019080519060200190620001229291906200012c565b5090505062000241565b8280546200013a90620001dc565b90600052602060002090601f0160209004810192826200015e5760008555620001aa565b82601f106200017957805160ff1916838001178555620001aa565b82800160010185558215620001aa579182015b82811115620001a95782518255916020019190600101906200018c565b5b509050620001b99190620001bd565b5090565b5b80821115620001d8576000816000905550600101620001be565b5090565b60006002820490506001821680620001f557607f821691505b602082108114156200020c576200020b62000212565b5b50919050565b7f4e487b7100000000000000000000000000000000000000000000000000000000600052602260045260246000fd5b6132bd80620002516000396000f3fe60806040526004361061021a5760003560e01c8063a5c3dfbf11610123578063dec4129d116100ab578063f3f0c2181161006f578063f3f0c2181461086d578063f58f85b514610896578063f7babe07146108d3578063f9c43bdf146108ea578063fbfa4b7f146109135761021a565b8063dec4129d1461076e578063e261f1e514610785578063e4b26115146107ca578063e706d55514610807578063f2aa8218146108305761021a565b8063ba49a08c116100f2578063ba49a08c14610672578063cbd735751461069d578063cee26ed5146106c6578063d7d1bbdb14610703578063dec091ad1461072c5761021a565b8063a5c3dfbf1461058a578063a6dc41fb146105b3578063ab517074146105f0578063b0a5dcd3146106325761021a565b806363f17143116101a657806389d213541161017557806389d213541461046b578063989376b4146104a85780639ae9711e146104e55780639dc1bfa914610510578063a47d4c021461054d5761021a565b806363f17143146103be578063784c8651146103fb578063835465011461041757806385168ba8146104545761021a565b80633863e7e1116101ed5780633863e7e1146102c75780634daa9dae146102f257806356cbdec41461032f5780635da20ac614610358578063601e7c34146103815761021a565b8063059b13431461021f57806308ccce82146102485780631a07f76e1461025f5780631c9afd0f1461029c575b600080fd5b34801561022b57600080fd5b5061024660048036038101906102419190612a92565b61093e565b005b34801561025457600080fd5b5061025d610c17565b005b34801561026b57600080fd5b5061028660048036038101906102819190612b69565b610ccb565b6040516102939190612e01565b60405180910390f35b3480156102a857600080fd5b506102b1610ceb565b6040516102be9190612e3c565b60405180910390f35b3480156102d357600080fd5b506102dc610cf1565b6040516102e99190612d69565b60405180910390f35b3480156102fe57600080fd5b5061031960048036038101906103149190612b69565b610d17565b6040516103269190612e01565b60405180910390f35b34801561033b57600080fd5b5061035660048036038101906103519190612bce565b610d37565b005b34801561036457600080fd5b5061037f600480360381019061037a9190612a92565b610fce565b005b34801561038d57600080fd5b506103a860048036038101906103a39190612946565b6111d5565b6040516103b59190612e01565b60405180910390f35b3480156103ca57600080fd5b506103e560048036038101906103e09190612946565b6111f5565b6040516103f29190612e01565b60405180910390f35b6104156004803603810190610410919061296f565b611215565b005b34801561042357600080fd5b5061043e60048036038101906104399190612b69565b6112e3565b60405161044b9190612e01565b60405180910390f35b34801561046057600080fd5b50610469611303565b005b34801561047757600080fd5b50610492600480360381019061048d9190612b69565b6113b7565b60405161049f9190612e01565b60405180910390f35b3480156104b457600080fd5b506104cf60048036038101906104ca9190612946565b6113d7565b6040516104dc9190612e01565b60405180910390f35b3480156104f157600080fd5b506104fa6113f7565b6040516105079190612e3c565b60405180910390f35b34801561051c57600080fd5b5061053760048036038101906105329190612b69565b6113fd565b6040516105449190612d69565b60405180910390f35b34801561055957600080fd5b50610574600480360381019061056f9190612946565b611430565b6040516105819190612e01565b60405180910390f35b34801561059657600080fd5b506105b160048036038101906105ac9190612b92565b611450565b005b3480156105bf57600080fd5b506105da60048036038101906105d59190612946565b611533565b6040516105e79190612e01565b60405180910390f35b3480156105fc57600080fd5b5061061760048036038101906106129190612946565b611553565b60405161062996959493929190612d84565b60405180910390f35b34801561063e57600080fd5b5061065960048036038101906106549190612b69565b6117cf565b6040516106699493929190612e57565b60405180910390f35b34801561067e57600080fd5b5061068761183f565b6040516106949190612e3c565b60405180910390f35b3480156106a957600080fd5b506106c460048036038101906106bf91906129e7565b611845565b005b3480156106d257600080fd5b506106ed60048036038101906106e89190612b69565b6119f4565b6040516106fa9190612d69565b60405180910390f35b34801561070f57600080fd5b5061072a60048036038101906107259190612b69565b611a33565b005b34801561073857600080fd5b50610753600480360381019061074e9190612946565b611b2d565b60405161076596959493929190612d84565b60405180910390f35b34801561077a57600080fd5b50610783611da9565b005b34801561079157600080fd5b506107ac60048036038101906107a79190612b69565b611e5d565b6040516107c199989796959493929190612e9c565b60405180910390f35b3480156107d657600080fd5b506107f160048036038101906107ec9190612946565b6120cb565b6040516107fe9190612e01565b60405180910390f35b34801561081357600080fd5b5061082e60048036038101906108299190612a92565b6120eb565b005b34801561083c57600080fd5b5061085760048036038101906108529190612b69565b6123c4565b6040516108649190612d69565b60405180910390f35b34801561087957600080fd5b50610894600480360381019061088f91906129ab565b612403565b005b3480156108a257600080fd5b506108bd60048036038101906108b89190612946565b612699565b6040516108ca9190612e01565b60405180910390f35b3480156108df57600080fd5b506108e86126b9565b005b3480156108f657600080fd5b50610911600480360381019061090c9190612b69565b61276d565b005b34801561091f57600080fd5b506109286127f6565b6040516109359190612e3c565b60405180910390f35b60001515600460003373ffffffffffffffffffffffffffffffffffffffff1673ffffffffffffffffffffffffffffffffffffffff16815260200190815260200160002060009054906101000a900460ff1615151461099b57600080fd5b6001600460003373ffffffffffffffffffffffffffffffffffffffff1673ffffffffffffffffffffffffffffffffffffffff16815260200190815260200160002060006101000a81548160ff0219169083151502179055506001600660003373ffffffffffffffffffffffffffffffffffffffff1673ffffffffffffffffffffffffffffffffffffffff16815260200190815260200160002060006101000a81548160ff02191690831515021790555060186000815480929190610a5e9061310c565b91905055506040518060c001604052803373ffffffffffffffffffffffffffffffffffffffff16815260200186815260200185815260200184815260200183815260200182815250600260003373ffffffffffffffffffffffffffffffffffffffff1673ffffffffffffffffffffffffffffffffffffffff16815260200190815260200160002060008201518160000160006101000a81548173ffffffffffffffffffffffffffffffffffffffff021916908373ffffffffffffffffffffffffffffffffffffffff1602179055506020820151816001019080519060200190610b489291906127fc565b50604082015181600201556060820151816003019080519060200190610b6f9291906127fc565b506080820151816004019080519060200190610b8c9291906127fc565b5060a0820151816005019080519060200190610ba99291906127fc565b509050506015339080600181540180825580915050600190039060005260206000200160009091909190916101000a81548173ffffffffffffffffffffffffffffffffffffffff021916908373ffffffffffffffffffffffffffffffffffffffff1602179055505050505050565b601060009054906101000a900473ffffffffffffffffffffffffffffffffffffffff1673ffffffffffffffffffffffffffffffffffffffff163373ffffffffffffffffffffffffffffffffffffffff1614610c7157600080fd5b6001600a60003373ffffffffffffffffffffffffffffffffffffffff1673ffffffffffffffffffffffffffffffffffffffff16815260200190815260200160002060006101000a81548160ff021916908315150217905550565b600f6020528060005260406000206000915054906101000a900460ff1681565b60165481565b601060009054906101000a900473ffffffffffffffffffffffffffffffffffffffff1681565b600e6020528060005260406000206000915054906101000a900460ff1681565b60011515600560003373ffffffffffffffffffffffffffffffffffffffff1673ffffffffffffffffffffffffffffffffffffffff16815260200190815260200160002060009054906101000a900460ff16151514610d9457600080fd5b60011515600760003373ffffffffffffffffffffffffffffffffffffffff1673ffffffffffffffffffffffffffffffffffffffff16815260200190815260200160002060009054906101000a900460ff1615151480610e43575060011515600960003373ffffffffffffffffffffffffffffffffffffffff1673ffffffffffffffffffffffffffffffffffffffff16815260200190815260200160002060009054906101000a900460ff161515145b610e4c57600080fd5b6040518061012001604052806001601654610e679190612fb7565b8152602001858152602001898152602001868152602001888152602001878152602001848152602001838152602001828152506000806016548152602001908152602001600020600082015181600001556020820151816001015560408201518160020155606082015181600301556080820151816004019080519060200190610ef29291906127fc565b5060a0820151816005019080519060200190610f0f9291906127fc565b5060c0820151816006015560e0820151816007019080519060200190610f369291906127fc565b50610100820151816008019080519060200190610f549291906127fc565b5090505060166000815480929190610f6b9061310c565b919050555033600c6000601654815260200190815260200160002060006101000a81548173ffffffffffffffffffffffffffffffffffffffff021916908373ffffffffffffffffffffffffffffffffffffffff1602179055505050505050505050565b60011515600660003373ffffffffffffffffffffffffffffffffffffffff1673ffffffffffffffffffffffffffffffffffffffff16815260200190815260200160002060009054906101000a900460ff1615151461102b57600080fd5b84600260003373ffffffffffffffffffffffffffffffffffffffff1673ffffffffffffffffffffffffffffffffffffffff16815260200190815260200160002060010190805190602001906110819291906127fc565b5083600260003373ffffffffffffffffffffffffffffffffffffffff1673ffffffffffffffffffffffffffffffffffffffff1681526020019081526020016000206002018190555082600260003373ffffffffffffffffffffffffffffffffffffffff1673ffffffffffffffffffffffffffffffffffffffff168152602001908152602001600020600301908051906020019061111f9291906127fc565b5081600260003373ffffffffffffffffffffffffffffffffffffffff1673ffffffffffffffffffffffffffffffffffffffff16815260200190815260200160002060040190805190602001906111769291906127fc565b5080600260003373ffffffffffffffffffffffffffffffffffffffff1673ffffffffffffffffffffffffffffffffffffffff16815260200190815260200160002060050190805190602001906111cd9291906127fc565b505050505050565b60056020528060005260406000206000915054906101000a900460ff1681565b60086020528060005260406000206000915054906101000a900460ff1681565b34600080838152602001908152602001600020600301541461126c576040517f08c379a000000000000000000000000000000000000000000000000000000000815260040161126390612e1c565b60405180910390fd5b6001600f600083815260200190815260200160002060006101000a81548160ff0219169083151502179055508173ffffffffffffffffffffffffffffffffffffffff166108fc349081150290604051600060405180830381858888f193505050501580156112de573d6000803e3d6000fd5b505050565b600b6020528060005260406000206000915054906101000a900460ff1681565b601060009054906101000a900473ffffffffffffffffffffffffffffffffffffffff1673ffffffffffffffffffffffffffffffffffffffff163373ffffffffffffffffffffffffffffffffffffffff161461135d57600080fd5b6001600760003373ffffffffffffffffffffffffffffffffffffffff1673ffffffffffffffffffffffffffffffffffffffff16815260200190815260200160002060006101000a81548160ff021916908315150217905550565b600d6020528060005260406000206000915054906101000a900460ff1681565b600a6020528060005260406000206000915054906101000a900460ff1681565b60175481565b600c6020528060005260406000206000915054906101000a900473ffffffffffffffffffffffffffffffffffffffff1681565b60066020528060005260406000206000915054906101000a900460ff1681565b8160011515600f600083815260200190815260200160002060009054906101000a900460ff1615151461148257600080fd5b601060009054906101000a900473ffffffffffffffffffffffffffffffffffffffff1673ffffffffffffffffffffffffffffffffffffffff163373ffffffffffffffffffffffffffffffffffffffff16146114dc57600080fd5b81600c600085815260200190815260200160002060006101000a81548173ffffffffffffffffffffffffffffffffffffffff021916908373ffffffffffffffffffffffffffffffffffffffff160217905550505050565b60096020528060005260406000206000915054906101000a900460ff1681565b60026020528060005260406000206000915090508060000160009054906101000a900473ffffffffffffffffffffffffffffffffffffffff169080600101805461159c906130a9565b80601f01602080910402602001604051908101604052809291908181526020018280546115c8906130a9565b80156116155780601f106115ea57610100808354040283529160200191611615565b820191906000526020600020905b8154815290600101906020018083116115f857829003601f168201915b505050505090806002015490806003018054611630906130a9565b80601f016020809104026020016040519081016040528092919081815260200182805461165c906130a9565b80156116a95780601f1061167e576101008083540402835291602001916116a9565b820191906000526020600020905b81548152906001019060200180831161168c57829003601f168201915b5050505050908060040180546116be906130a9565b80601f01602080910402602001604051908101604052809291908181526020018280546116ea906130a9565b80156117375780601f1061170c57610100808354040283529160200191611737565b820191906000526020600020905b81548152906001019060200180831161171a57829003601f168201915b50505050509080600501805461174c906130a9565b80601f0160208091040260200160405190810160405280929190818152602001828054611778906130a9565b80156117c55780601f1061179a576101008083540402835291602001916117c5565b820191906000526020600020905b8154815290600101906020018083116117a857829003601f168201915b5050505050905086565b60036020528060005260406000206000915090508060000154908060010160009054906101000a900473ffffffffffffffffffffffffffffffffffffffff16908060020160009054906101000a900473ffffffffffffffffffffffffffffffffffffffff16908060030154905084565b60185481565b60011515600560003373ffffffffffffffffffffffffffffffffffffffff1673ffffffffffffffffffffffffffffffffffffffff16815260200190815260200160002060009054906101000a900460ff161515146118a257600080fd5b83600160003373ffffffffffffffffffffffffffffffffffffffff1673ffffffffffffffffffffffffffffffffffffffff16815260200190815260200160002060010190805190602001906118f89291906127fc565b5082600160003373ffffffffffffffffffffffffffffffffffffffff1673ffffffffffffffffffffffffffffffffffffffff1681526020019081526020016000206002018190555081600160003373ffffffffffffffffffffffffffffffffffffffff1673ffffffffffffffffffffffffffffffffffffffff16815260200190815260200160002060040190805190602001906119969291906127fc565b5080600160003373ffffffffffffffffffffffffffffffffffffffff1673ffffffffffffffffffffffffffffffffffffffff16815260200190815260200160002060050190805190602001906119ed9291906127fc565b5050505050565b60148181548110611a0457600080fd5b906000526020600020016000915054906101000a900473ffffffffffffffffffffffffffffffffffffffff1681565b60011515600560003373ffffffffffffffffffffffffffffffffffffffff1673ffffffffffffffffffffffffffffffffffffffff16815260200190815260200160002060009054906101000a900460ff16151514611a9057600080fd5b3373ffffffffffffffffffffffffffffffffffffffff166003600083815260200190815260200160002060010160009054906101000a900473ffffffffffffffffffffffffffffffffffffffff1673ffffffffffffffffffffffffffffffffffffffff1614611afe57600080fd5b6001600d600083815260200190815260200160002060006101000a81548160ff02191690831515021790555050565b60016020528060005260406000206000915090508060000160009054906101000a900473ffffffffffffffffffffffffffffffffffffffff1690806001018054611b76906130a9565b80601f0160208091040260200160405190810160405280929190818152602001828054611ba2906130a9565b8015611bef5780601f10611bc457610100808354040283529160200191611bef565b820191906000526020600020905b815481529060010190602001808311611bd257829003601f168201915b505050505090806002015490806003018054611c0a906130a9565b80601f0160208091040260200160405190810160405280929190818152602001828054611c36906130a9565b8015611c835780601f10611c5857610100808354040283529160200191611c83565b820191906000526020600020905b815481529060010190602001808311611c6657829003601f168201915b505050505090806004018054611c98906130a9565b80601f0160208091040260200160405190810160405280929190818152602001828054611cc4906130a9565b8015611d115780601f10611ce657610100808354040283529160200191611d11565b820191906000526020600020905b815481529060010190602001808311611cf457829003601f168201915b505050505090806005018054611d26906130a9565b80601f0160208091040260200160405190810160405280929190818152602001828054611d52906130a9565b8015611d9f5780601f10611d7457610100808354040283529160200191611d9f565b820191906000526020600020905b815481529060010190602001808311611d8257829003601f168201915b5050505050905086565b601060009054906101000a900473ffffffffffffffffffffffffffffffffffffffff1673ffffffffffffffffffffffffffffffffffffffff163373ffffffffffffffffffffffffffffffffffffffff1614611e0357600080fd5b6001600960003373ffffffffffffffffffffffffffffffffffffffff1673ffffffffffffffffffffffffffffffffffffffff16815260200190815260200160002060006101000a81548160ff021916908315150217905550565b6000602052806000526040600020600091509050806000015490806001015490806002015490806003015490806004018054611e98906130a9565b80601f0160208091040260200160405190810160405280929190818152602001828054611ec4906130a9565b8015611f115780601f10611ee657610100808354040283529160200191611f11565b820191906000526020600020905b815481529060010190602001808311611ef457829003601f168201915b505050505090806005018054611f26906130a9565b80601f0160208091040260200160405190810160405280929190818152602001828054611f52906130a9565b8015611f9f5780601f10611f7457610100808354040283529160200191611f9f565b820191906000526020600020905b815481529060010190602001808311611f8257829003601f168201915b505050505090806006015490806007018054611fba906130a9565b80601f0160208091040260200160405190810160405280929190818152602001828054611fe6906130a9565b80156120335780601f1061200857610100808354040283529160200191612033565b820191906000526020600020905b81548152906001019060200180831161201657829003601f168201915b505050505090806008018054612048906130a9565b80601f0160208091040260200160405190810160405280929190818152602001828054612074906130a9565b80156120c15780601f10612096576101008083540402835291602001916120c1565b820191906000526020600020905b8154815290600101906020018083116120a457829003601f168201915b5050505050905089565b60076020528060005260406000206000915054906101000a900460ff1681565b60001515600460003373ffffffffffffffffffffffffffffffffffffffff1673ffffffffffffffffffffffffffffffffffffffff16815260200190815260200160002060009054906101000a900460ff1615151461214857600080fd5b6001600460003373ffffffffffffffffffffffffffffffffffffffff1673ffffffffffffffffffffffffffffffffffffffff16815260200190815260200160002060006101000a81548160ff0219169083151502179055506001600560003373ffffffffffffffffffffffffffffffffffffffff1673ffffffffffffffffffffffffffffffffffffffff16815260200190815260200160002060006101000a81548160ff0219169083151502179055506017600081548092919061220b9061310c565b91905055506040518060c001604052803373ffffffffffffffffffffffffffffffffffffffff16815260200186815260200185815260200182815260200184815260200183815250600160003373ffffffffffffffffffffffffffffffffffffffff1673ffffffffffffffffffffffffffffffffffffffff16815260200190815260200160002060008201518160000160006101000a81548173ffffffffffffffffffffffffffffffffffffffff021916908373ffffffffffffffffffffffffffffffffffffffff16021790555060208201518160010190805190602001906122f59291906127fc565b5060408201518160020155606082015181600301908051906020019061231c9291906127fc565b5060808201518160040190805190602001906123399291906127fc565b5060a08201518160050190805190602001906123569291906127fc565b509050506014339080600181540180825580915050600190039060005260206000200160009091909190916101000a81548173ffffffffffffffffffffffffffffffffffffffff021916908373ffffffffffffffffffffffffffffffffffffffff1602179055505050505050565b601581815481106123d457600080fd5b906000526020600020016000915054906101000a900473ffffffffffffffffffffffffffffffffffffffff1681565b60011515600660003373ffffffffffffffffffffffffffffffffffffffff1673ffffffffffffffffffffffffffffffffffffffff16815260200190815260200160002060009054906101000a900460ff1615151461246057600080fd5b60011515600760003373ffffffffffffffffffffffffffffffffffffffff1673ffffffffffffffffffffffffffffffffffffffff16815260200190815260200160002060009054906101000a900460ff161515148061250f575060011515600960003373ffffffffffffffffffffffffffffffffffffffff1673ffffffffffffffffffffffffffffffffffffffff16815260200190815260200160002060009054906101000a900460ff161515145b61251857600080fd5b6019600081548092919061252b9061310c565b9190505550604051806080016040528060195481526020018373ffffffffffffffffffffffffffffffffffffffff1681526020013373ffffffffffffffffffffffffffffffffffffffff168152602001828152506003600060195481526020019081526020016000206000820151816000015560208201518160010160006101000a81548173ffffffffffffffffffffffffffffffffffffffff021916908373ffffffffffffffffffffffffffffffffffffffff16021790555060408201518160020160006101000a81548173ffffffffffffffffffffffffffffffffffffffff021916908373ffffffffffffffffffffffffffffffffffffffff160217905550606082015181600301559050506000600d6000601954815260200190815260200160002060006101000a81548160ff0219169083151502179055506001600e6000601954815260200190815260200160002060006101000a81548160ff0219169083151502179055505050565b60046020528060005260406000206000915054906101000a900460ff1681565b601060009054906101000a900473ffffffffffffffffffffffffffffffffffffffff1673ffffffffffffffffffffffffffffffffffffffff163373ffffffffffffffffffffffffffffffffffffffff161461271357600080fd5b6001600860003373ffffffffffffffffffffffffffffffffffffffff1673ffffffffffffffffffffffffffffffffffffffff16815260200190815260200160002060006101000a81548160ff021916908315150217905550565b601060009054906101000a900473ffffffffffffffffffffffffffffffffffffffff1673ffffffffffffffffffffffffffffffffffffffff163373ffffffffffffffffffffffffffffffffffffffff16146127c757600080fd5b6001600b600083815260200190815260200160002060006101000a81548160ff02191690831515021790555050565b60195481565b828054612808906130a9565b90600052602060002090601f01602090048101928261282a5760008555612871565b82601f1061284357805160ff1916838001178555612871565b82800160010185558215612871579182015b82811115612870578251825591602001919060010190612855565b5b50905061287e9190612882565b5090565b5b8082111561289b576000816000905550600101612883565b5090565b60006128b26128ad84612f6a565b612f45565b9050828152602081018484840111156128ca57600080fd5b6128d5848285613067565b509392505050565b6000813590506128ec81613242565b92915050565b60008135905061290181613259565b92915050565b600082601f83011261291857600080fd5b813561292884826020860161289f565b91505092915050565b60008135905061294081613270565b92915050565b60006020828403121561295857600080fd5b6000612966848285016128dd565b91505092915050565b6000806040838503121561298257600080fd5b6000612990858286016128f2565b92505060206129a185828601612931565b9150509250929050565b600080604083850312156129be57600080fd5b60006129cc858286016128dd565b92505060206129dd85828601612931565b9150509250929050565b600080600080608085870312156129fd57600080fd5b600085013567ffffffffffffffff811115612a1757600080fd5b612a2387828801612907565b9450506020612a3487828801612931565b935050604085013567ffffffffffffffff811115612a5157600080fd5b612a5d87828801612907565b925050606085013567ffffffffffffffff811115612a7a57600080fd5b612a8687828801612907565b91505092959194509250565b600080600080600060a08688031215612aaa57600080fd5b600086013567ffffffffffffffff811115612ac457600080fd5b612ad088828901612907565b9550506020612ae188828901612931565b945050604086013567ffffffffffffffff811115612afe57600080fd5b612b0a88828901612907565b935050606086013567ffffffffffffffff811115612b2757600080fd5b612b3388828901612907565b925050608086013567ffffffffffffffff811115612b5057600080fd5b612b5c88828901612907565b9150509295509295909350565b600060208284031215612b7b57600080fd5b6000612b8984828501612931565b91505092915050565b60008060408385031215612ba557600080fd5b6000612bb385828601612931565b9250506020612bc4858286016128dd565b9150509250929050565b600080600080600080600080610100898b031215612beb57600080fd5b6000612bf98b828c01612931565b985050602089013567ffffffffffffffff811115612c1657600080fd5b612c228b828c01612907565b975050604089013567ffffffffffffffff811115612c3f57600080fd5b612c4b8b828c01612907565b9650506060612c5c8b828c01612931565b9550506080612c6d8b828c01612931565b94505060a0612c7e8b828c01612931565b93505060c089013567ffffffffffffffff811115612c9b57600080fd5b612ca78b828c01612907565b92505060e089013567ffffffffffffffff811115612cc457600080fd5b612cd08b828c01612907565b9150509295985092959890939650565b612ce98161300d565b82525050565b612cf881613031565b82525050565b6000612d0982612f9b565b612d138185612fa6565b9350612d23818560208601613076565b612d2c816131e2565b840191505092915050565b6000612d44602683612fa6565b9150612d4f826131f3565b604082019050919050565b612d638161305d565b82525050565b6000602082019050612d7e6000830184612ce0565b92915050565b600060c082019050612d996000830189612ce0565b8181036020830152612dab8188612cfe565b9050612dba6040830187612d5a565b8181036060830152612dcc8186612cfe565b90508181036080830152612de08185612cfe565b905081810360a0830152612df48184612cfe565b9050979650505050505050565b6000602082019050612e166000830184612cef565b92915050565b60006020820190508181036000830152612e3581612d37565b9050919050565b6000602082019050612e516000830184612d5a565b92915050565b6000608082019050612e6c6000830187612d5a565b612e796020830186612ce0565b612e866040830185612ce0565b612e936060830184612d5a565b95945050505050565b600061012082019050612eb2600083018c612d5a565b612ebf602083018b612d5a565b612ecc604083018a612d5a565b612ed96060830189612d5a565b8181036080830152612eeb8188612cfe565b905081810360a0830152612eff8187612cfe565b9050612f0e60c0830186612d5a565b81810360e0830152612f208185612cfe565b9050818103610100830152612f358184612cfe565b90509a9950505050505050505050565b6000612f4f612f60565b9050612f5b82826130db565b919050565b6000604051905090565b600067ffffffffffffffff821115612f8557612f846131b3565b5b612f8e826131e2565b9050602081019050919050565b600081519050919050565b600082825260208201905092915050565b6000612fc28261305d565b9150612fcd8361305d565b9250827fffffffffffffffffffffffffffffffffffffffffffffffffffffffffffffffff0382111561300257613001613155565b5b828201905092915050565b60006130188261303d565b9050919050565b600061302a8261303d565b9050919050565b60008115159050919050565b600073ffffffffffffffffffffffffffffffffffffffff82169050919050565b6000819050919050565b82818337600083830152505050565b60005b83811015613094578082015181840152602081019050613079565b838111156130a3576000848401525b50505050565b600060028204905060018216806130c157607f821691505b602082108114156130d5576130d4613184565b5b50919050565b6130e4826131e2565b810181811067ffffffffffffffff82111715613103576131026131b3565b5b80604052505050565b60006131178261305d565b91507fffffffffffffffffffffffffffffffffffffffffffffffffffffffffffffffff82141561314a57613149613155565b5b600182019050919050565b7f4e487b7100000000000000000000000000000000000000000000000000000000600052601160045260246000fd5b7f4e487b7100000000000000000000000000000000000000000000000000000000600052602260045260246000fd5b7f4e487b7100000000000000000000000000000000000000000000000000000000600052604160045260246000fd5b6000601f19601f8301169050919050565b7f7061796d656e74206973206e6f7420657175616c20746f20746865206c616e6460008201527f2070726963650000000000000000000000000000000000000000000000000000602082015250565b61324b8161300d565b811461325657600080fd5b50565b6132628161301f565b811461326d57600080fd5b50565b6132798161305d565b811461328457600080fd5b5056fea26469706673582212202357479e7df6503c18ecb81bca8c25fd8861dfa31847587b20e274cfc073eb9464736f6c63430008040033",
  "linkReferences": {},
  "deployedLinkReferences": {}
}